:10000000A6C0DBC2BDC0BCC0BBC0BAC0B9C0B8C00E
:10001000B7C0B6C0B5C0B4C0B3C0B2C0B1C0B0C044
:10002000AFC0AEC0ADC02048756D696469747920F9
:100030003A20002054656D70657261747572652098
:100040003A2000415426570D0A0041542B49505282
:100050003D393630300D0A0041542B4353434C4B4D
:100060003D300D0A0041542B4353434C4B3D320D60
:100070000A0041542B4346554E3D310D0A00415470
:100080002B4346554E3D340D0A00220A0D00434DC8
:10009000543A0041542B434E4D493D312C322C30C3
:1000A0002C302C300D0A0041542B434D4744413D28
:1000B0002244454C20414C4C220D0A0041542B4314
:1000C0004D47533D220041542B434D47463D310D92
:1000D0000A004154480A0D0041542B4346475249F7
:1000E0003D310A0D0041542B4350494E3D223131E0
:1000F0003131220A0D00415445300A0D0041542B84
:100100004350494E3F0A0D002B4350494E3A20536D
:10011000494D2050494E002B4350494E3A205245FC
:100120004144590041542B435245473F0A0D002B8F
:10013000435245473A20302C35002B435245473A2D
:1001400020302C31004F4B0041540A0D0000112487
:100150001FBECFEDCDBF10E0A0E6B0E0E8EBF7E0CA
:1001600002C005900D92AE39B107D9F720E0AEE993
:10017000B0E001C01D92A43BB207E1F729D21AC337
:100180003FCF90E061E0482F50E026B32170262752
:1001900030E02417350729F49F5F903511F00000F7
:1001A000F4CF892F0895B898C09A08955F926F92FE
:1001B0007F928F929F92AF92BF92CF92DF92EF92F7
:1001C000FF920F931F93CF93DF93CDB7DD27C550D9
:1001D000CDBF5C016B017A018901CE0101964C0112
:1001E00085E0F40111928A95E9F7B89AC0982AE15E
:1001F00039EF3A95F1F72A95E1F7C09AB89880E07F
:10020000C0DF87FF02C08FEF46C081E0BADF87FD05
:10021000FACF80E0B6DF87FDF6CF95E0592E88E073
:10022000682E81E0AEDFF4017080770C708280E090
:10023000A8DF823024F0872D8160F40180836A94E6
:100240006110EFCF5A94FFEF8F1A9F0A5110E7CF3A
:1002500059814A817B816C812D8130E0842F90E02F
:10026000850F911D870F911D860F911D9927F5010F
:100270002817390741F47083F6016083F701508332
:10028000F801408307C01082F6011082F701108246
:10029000F801108280E0CB5FCDBFDF91CF911F913D
:1002A0000F91FF90EF90DF90CF90BF90AF909F9015
:1002B0008F907F906F905F90089582E08BB912B815
:1002C0008CE089B988E18AB986E083B908955D9B9D
:1002D000FECF8CB908955F9BFECF8CB10895CF936C
:1002E000DF93AC01DC0190E020E03D91FB01E90FE0
:1002F000F11D8081381320C090E0892F820FFA0110
:10030000E80FF11D3081C92FD0E031110BC0FB0186
:1003100001900020E9F73197E61BF70BCE17DF07B6
:1003200059F40FC0FB01EC0FFD1F8081882379F386
:100330003813EDCF9F5FE1CF2F5F2832B1F680E019
:1003400001C081E0DF91CF910895CF93DF93EC015D
:100350008991882311F0BBDFFBCFDF91CF91089506
:10036000CF93DF93EC01CE01FE012491222329F0EB
:100370002196FC018491ABDFF6CFDF91CF910895F8
:100380001092B300A8DF282F30E02A30310599F011
:100390002D30310581F09091B300983298F7E091BB
:1003A000B300F0E0EB58FF4F80838091B3008F5F84
:1003B0008093B300E7CF8091B300882319F3E091D5
:1003C000B300F0E0EB58FF4F10821092B30081E0D1
:1003D00008951092B2001092B30080E0E091B30053
:1003E000F0E0EB58FF4F20819091B3009F5F909316
:1003F000B3008F5F2A3311F0863981F7E091B300A3
:10040000F0E0EB58FF4F20819091B3009F5F9093F5
:10041000B3008F5F223211F0863980F3E091B30090
:10042000F0E0EB58FF4F20819091B3009F5F9093D5
:10043000B300E091B200F0E0E05AFF4F20839091CA
:10044000B2009F5F9093B2008F5F223211F0863925
:1004500028F3E091B200F0E0E15AFF4F10821092D1
:10046000B2001092B30081E00895882361F026E085
:1004700033E14EEA4A95F1F73A95E1F72A95D1F73B
:1004800000C08150F2CF0895CF9388E491E068DFF7
:1004900077DF882379F043E050E065E471E08EE98E
:1004A00090E07FD16EE970E085E790E018DFC1E071
:1004B000813009F0C0E081E0D8DFCC2331F386EF52
:1004C00090E04EDF81E0CF910895CF9382E0CDDFC1
:1004D0008DEF90E045DF54DF8823C1F34DE050E01D
:1004E00067E171E08EE990E05CD16EE970E085E74C
:1004F00090E0F5DEC82F4FE050E068E071E08EE953
:1005000090E04FD16EE970E085E790E0E8DE813061
:1005100029F485EE90E024DF81E0A7DFC130B1F659
:1005200081E0CF910895CF9383E09FDF84E291E053
:1005300017DF26DF8823E1F04BE050E06AE371E04B
:100540008EE990E02ED16EE970E085E790E0C7DE9D
:10055000C82F4BE050E06FE271E08EE990E021D1CE
:100560006EE970E085E790E0BADE813071F40FC08B
:1005700081E07BDF8EE790E0F3DE8CE376DF82E7DD
:1005800090E0EEDE8CE371DFCFCFC13069F681E021
:10059000CF91089585B7806585BF85B7806285BF97
:1005A00085B78C7F85BF8BB780648BBFF8947894B8
:1005B000889585B78F7D85BF08951F920F920FB6DE
:1005C0000F9211241BBE0F900FBE0F901F90189515
:1005D000CF93DF93CDB7DD27C450CDBF6EDE8AE069
:1005E00044DF52DF82E041DF8AE490E0B9DE82E05E
:1005F0003CDF88ED90E0B4DE82E037DF83E490E01A
:10060000AFDE83E032DF61DF8EDF82E02EDF44E6A3
:10061000A42EB12C5AE0C52ED12C6EE2962E86EC7B
:1006200090E09EDE82E021DF87EA90E099DE82E0C2
:100630001CDF83E990E094DE82E017DF85E690E03E
:100640008FDE82E012DFA6DF9BDE882341F345E0E8
:1006500050E06EE870E08EE990E0A3D06EE970E0C3
:1006600085E790E03CDE813081F5B3DE88E491E0FF
:1006700077DE81E0FADE88E590E072DE81E0F5DE8B
:1006800092DD82E0F2DE86EC90E06ADE81E0EDDE73
:100690008CEB90E065DE80E690E057DE8AE890E043
:1006A0005FDE81E0E2DE9E012F5F3F4FAE014E5FD5
:1006B0005F4FBE016D5F7F4FCE01049677DD8C8169
:1006C00087FD11C030E2832E12C088E491E048DE3D
:1006D00081E0CBDE88E590E043DE81E0C6DEF5DE3A
:1006E00022DF81E048C080588C832DE2822EEC808E
:1006F000F12CFE2CEE248B81E80EF11C0A8110E017
:10070000102F00278981080F111D83E390E028DE58
:1007100080926F00C701B50130D0605D60937000BA
:10072000B6012BD0605D6093710090927200805D85
:10073000809373008FE690E008DE86E290E010DEA2
:1007400080E280936F00C801B50117D0605D6093AF
:100750007000B60112D0605D6093710090927200DB
:10076000805D809373008FE690E0EFDD81E07DDEB9
:100770008AE1ADDD85E079DE52CFAA1BBB1B51E1DA
:1007800007C0AA1FBB1FA617B70710F0A61BB70B01
:10079000881F991F5A95A9F780959095BC01CD01A6
:1007A0000895FB01DC0102C005900D9241505040BC
:0807B000D8F70895F894FFCF7B
:1007B80031323334353637383930313233343530F5
:1007C8003030303000313233343536373839303123
:1007D80032333435363738393031323334353637C9
:0E07E800383930313233343536373839300055
:00000001FF
