:100000000C94C8000C9442030C94E5000C94E50099
:100010000C94E5000C94E5000C94E5000C94E500CC
:100020000C94E5000C94E5000C94E5000C94E500BC
:100030000C94E5000C94E5000C94E5000C94E500AC
:100040000C94E5000C94E5000C94E5000C94E5009C
:100050000C94E5000C94E5000C94E5000C94E5008C
:100060000C94E5000C94E5002048756D6964697492
:1000700079203A20002054656D7065726174757244
:1000800065203A2000415426570D0A0041542B495F
:1000900050523D393630300D0A0041542B43534302
:1000A0004C4B3D300D0A0041542B4353434C4B3DC8
:1000B000320D0A0041542B4346554E3D310D0A0086
:1000C00041542B4346554E3D340D0A00220A0D0083
:1000D000434D543A0041542B434E4D493D312C324F
:1000E0002C302C302C300D0A0041542B434D47440A
:1000F000413D2244454C20414C4C220D0A004154C4
:100100002B434D47533D220041542B434D47463D21
:10011000310D0A004154480A0D0041542B43464713
:1001200052493D310A0D0041542B4350494E3D2266
:1001300031313131220A0D00415445300A0D004160
:10014000542B4350494E3F0A0D002B4350494E3A21
:100150002053494D2050494E002B4350494E3A20E0
:1001600052454144590041542B435245473F0A0DE3
:10017000002B435245473A20302C35002B43524543
:10018000473A20302C31004F4B0041540A0D0000FB
:1001900011241FBECFEFD8E0DEBFCDBF11E0A0E03D
:1001A000B1E0E6EEF8E002C005900D92AE33B10783
:1001B000D9F721E0AEE3B1E001C01D92A435B2074A
:1001C000E1F70E944D030C9471040C94000090E040
:1001D00061E0482F50E023B12170262730E024173A
:1001E000350729F49F5F903511F00000F4CF892F77
:1001F00008952098289A08955F926F927F928F9227
:100200009F92AF92BF92CF92DF92EF92FF920F93A5
:100210001F93CF93DF9300D000D01F92CDB7DEB7EE
:100220005C016B017A018901CE0101964C0185E0E8
:10023000F40111928A95E9F7209A28982AE139EF7A
:100240003A95F1F72A95E1F7289A209880E00E94E4
:10025000E70087FF02C08FEF4AC081E00E94E700FD
:1002600087FDF9CF80E00E94E70087FDF4CF95E09D
:10027000592E88E0682E81E00E94E700F40170802A
:10028000770C708280E00E94E700823024F0872D96
:100290008160F40180836A946110EDCF5A94FFEF7E
:1002A0008F1A9F0A5110E5CF59814A817B816C8159
:1002B0002D8130E0842F90E0850F911D870F911DD7
:1002C000860F911D9927F5012817390741F470838E
:1002D000F6016083F7015083F801408307C0108264
:1002E000F6011082F7011082F801108280E00F9071
:1002F0000F900F900F900F90DF91CF911F910F9162
:10030000FF90EF90DF90CF90BF90AF909F908F9035
:100310007F906F905F90089582E08093C00010926C
:10032000C5008CE08093C400E1ECF0E0808188603F
:100330008083808180618083E2ECF0E08081866050
:10034000808308959091C00095FFFCCF8093C600F4
:1003500008958091C00087FFFCCF8091C60008956A
:10036000CF93DF93AC01DC0190E020E03D91FB01F5
:10037000E90FF11D8081381320C090E0892F820F92
:10038000FA01E80FF11D3081C92FD0E031110BC007
:10039000FB0101900020E9F73197E61BF70BCE1720
:1003A000DF0759F40FC0FB01EC0FFD1F808188238C
:1003B00079F33813EDCF9F5FE1CF2F5F2832B1F68D
:1003C00080E001C081E0DF91CF910895CF93DF936A
:1003D000EC018991882319F00E94A201FACFDF91E4
:1003E000CF910895CF93DF93EC01CE01FE012491CC
:1003F000222331F02196FC0184910E94A201F5CFC5
:10040000DF91CF910895109253010E94A901282FE6
:1004100030E02A30310599F02D30310581F090918E
:100420005301983290F7E0915301F0E0EB5EFE4FFC
:100430008083809153018F5F80935301E6CF809139
:100440005301882311F3E0915301F0E0EB5EFE4F7E
:1004500010821092530181E008951092520110927F
:10046000530180E0E0915301F0E0EB5EFE4F20810C
:10047000909153019F5F909353018F5F2A3311F046
:10048000883281F7E0915301F0E0EB5EFE4F20816E
:10049000909153019F5F909353018F5F223211F02F
:1004A000883280F3E0915301F0E0EB5EFE4F208153
:1004B000909153019F5F90935301E0915201F0E0BE
:1004C000E050FF4F2083909152019F5F9093520123
:1004D0008F5F223211F0883228F3E0915201F0E070
:1004E000E150FF4F1082109252011092530181E0AF
:1004F0000895882361F026E033E14EEA4A95F1F74A
:100500003A95E1F72A95D1F700C08150F2CF0895CE
:10051000CF938AE891E00E94F2010E9403028823AF
:1005200089F043E050E067E871E08EE391E00E94DB
:1005300068046EE371E085E191E00E94B001C1E0E2
:10054000813009F0C0E081E00E947902CC2309F3F8
:1005500088E391E00E94F20181E0CF910895CF936A
:1005600082E00E9479028FE391E00E94F2010E94F2
:1005700003028823A9F34DE050E069E571E08EE3C2
:1005800091E00E9468046EE371E085E191E00E94D1
:10059000B001C82F4FE050E06AE471E08EE391E0D3
:1005A0000E9468046EE371E085E191E00E94B00171
:1005B000813039F487E291E00E94F20181E00E94EB
:1005C0007902C13069F681E0CF910895CF9383E03D
:1005D0000E94790286E691E00E94F2010E940302E5
:1005E000882301F14BE050E06CE771E08EE391E08D
:1005F0000E9468046EE371E085E191E00E94B00121
:10060000C82F4BE050E061E771E08EE391E00E947B
:1006100068046EE371E085E191E00E94B0018130F1
:1006200099F414C081E00E94790280EC90E00E946D
:10063000F2018CE30E94790284EB90E00E94F201C7
:100640008CE30E947902C3CFC13009F681E0CF91DB
:10065000089583B7817F846083BF83B7816083BF40
:1006600052985A9AF894E9E6F0E080818D7F808371
:1006700080818E7F8083E89A7894889583B78E7F77
:1006800083BF08951F920F920FB60F921124E8981E
:100690000F900FBE0F901F901895CF93DF9300D04F
:1006A00000D0CDB7DEB70E948C018AE00E947902AB
:1006B0000E94880282E00E9479028CE890E00E9409
:1006C000F20182E00E9479028AE191E00E94F20147
:1006D00082E00E94790285E890E00E94F20183E0C6
:1006E0000E9479020E94AF020E94E60282E00E940C
:1006F000790284E6C82ED12C9AE0A92EB12C2EE2E4
:10070000922E30E2832E88E091E00E94F20182E096
:100710000E94790289EE90E00E94F20182E00E943C
:10072000790285ED90E00E94F20182E00E94790258
:1007300087EA90E00E94F20182E00E9479020E9422
:1007400029030E9403028823F1F245E050E060EDA6
:1007500070E08EE391E00E9468046EE371E085E151
:1007600091E00E94B001813009F088C00E942D0202
:100770008AE891E00E94F20181E00E9479028AE910
:1007800090E00E94F20181E00E9479020E94F9004B
:1007900082E00E94790288E091E00E94F20181E00B
:1007A0000E9479028EEF90E00E94F20180E091E0D9
:1007B0000E94E6018CEC90E00E94F20181E00E9430
:1007C00079029E012F5F3F4FAE014E5F5F4FBE012A
:1007D0006D5F7F4FCE0104960E94FC008C81EB8000
:1007E000F12C9AE0899FE00CF11C11248A81098187
:1007F00010E09AE0899F000D111D112485E790E01B
:100800000E94F20110920F01C701B6010E94540428
:10081000605D60931001B5010E945404605D6093B7
:10082000110190921201805D809313018FE091E09D
:100830000E94E60188E690E00E94F20180920F019A
:10084000C801B6010E945404605D60931001B501B7
:100850000E945404605D6093110190921201805DCA
:10086000809313018FE091E00E94E60181E00E94F5
:1008700079028AE10E94A20185E013C08AE891E032
:100880000E94F20181E00E9479028AE990E00E94D0
:10089000F20181E00E9479020E94AF020E94E6020A
:1008A00081E00E9479022FCFAA1BBB1B51E107C038
:1008B000AA1FBB1FA617B70710F0A61BB70B881FF0
:1008C000991F5A95A9F780959095BC01CD0108957F
:1008D000FB01DC0102C005900D9241505040D8F759
:0608E0000895F894FFCF1B
:1008E60031323334353637383930313233343530C6
:1008F60030303030003132333435363738393031F4
:100906003233343536373839303132333435363799
:0E091600383930313233343536373839300025
:00000001FF
